{
  "contractName": "CrowdFunding",
  "abi": [
    {
      "anonymous": false,
      "inputs": [
        {
          "indexed": false,
          "internalType": "string",
          "name": "projectId",
          "type": "string"
        },
        {
          "indexed": false,
          "internalType": "string",
          "name": "name",
          "type": "string"
        },
        {
          "indexed": false,
          "internalType": "string",
          "name": "description",
          "type": "string"
        },
        {
          "indexed": false,
          "internalType": "uint256",
          "name": "fundraisingGoal",
          "type": "uint256"
        }
      ],
      "name": "ProjectCreated",
      "type": "event"
    },
    {
      "anonymous": false,
      "inputs": [
        {
          "indexed": false,
          "internalType": "string",
          "name": "projectId",
          "type": "string"
        },
        {
          "indexed": false,
          "internalType": "uint256",
          "name": "value",
          "type": "uint256"
        }
      ],
      "name": "ProjectFunded",
      "type": "event"
    },
    {
      "anonymous": false,
      "inputs": [
        {
          "indexed": false,
          "internalType": "string",
          "name": "id",
          "type": "string"
        },
        {
          "indexed": false,
          "internalType": "enum CrowdFunding.FundRaisingState",
          "name": "state",
          "type": "uint8"
        }
      ],
      "name": "ProjectStateChanged",
      "type": "event"
    },
    {
      "inputs": [
        {
          "internalType": "string",
          "name": "",
          "type": "string"
        },
        {
          "internalType": "uint256",
          "name": "",
          "type": "uint256"
        }
      ],
      "name": "contributions",
      "outputs": [
        {
          "internalType": "address",
          "name": "contributor",
          "type": "address"
        },
        {
          "internalType": "uint256",
          "name": "value",
          "type": "uint256"
        }
      ],
      "stateMutability": "view",
      "type": "function",
      "constant": true
    },
    {
      "inputs": [
        {
          "internalType": "uint256",
          "name": "",
          "type": "uint256"
        }
      ],
      "name": "projects",
      "outputs": [
        {
          "internalType": "string",
          "name": "id",
          "type": "string"
        },
        {
          "internalType": "string",
          "name": "name",
          "type": "string"
        },
        {
          "internalType": "string",
          "name": "description",
          "type": "string"
        },
        {
          "internalType": "address payable",
          "name": "author",
          "type": "address"
        },
        {
          "internalType": "enum CrowdFunding.FundRaisingState",
          "name": "state",
          "type": "uint8"
        },
        {
          "internalType": "uint256",
          "name": "funds",
          "type": "uint256"
        },
        {
          "internalType": "uint256",
          "name": "fundraisingGoal",
          "type": "uint256"
        }
      ],
      "stateMutability": "view",
      "type": "function",
      "constant": true
    },
    {
      "inputs": [
        {
          "internalType": "string",
          "name": "id",
          "type": "string"
        },
        {
          "internalType": "string",
          "name": "name",
          "type": "string"
        },
        {
          "internalType": "string",
          "name": "description",
          "type": "string"
        },
        {
          "internalType": "uint256",
          "name": "fundraisingGoal",
          "type": "uint256"
        }
      ],
      "name": "createProject",
      "outputs": [],
      "stateMutability": "nonpayable",
      "type": "function"
    },
    {
      "inputs": [
        {
          "internalType": "uint256",
          "name": "projectIndex",
          "type": "uint256"
        }
      ],
      "name": "fundProject",
      "outputs": [],
      "stateMutability": "payable",
      "type": "function",
      "payable": true
    },
    {
      "inputs": [
        {
          "internalType": "enum CrowdFunding.FundRaisingState",
          "name": "newState",
          "type": "uint8"
        },
        {
          "internalType": "uint256",
          "name": "projectIndex",
          "type": "uint256"
        }
      ],
      "name": "changeProjectState",
      "outputs": [],
      "stateMutability": "nonpayable",
      "type": "function"
    }
  ],
  "bytecode": "0x608060405234801561001057600080fd5b50611e5b806100206000396000f3fe60806040526004361061004a5760003560e01c8063107046bd1461004f5780631ca73896146100925780636c563abe146100bb5780637f3fcdd9146100d7578063d14ce3b914610115575b600080fd5b34801561005b57600080fd5b506100766004803603810190610071919061151b565b61013e565b60405161008997969594939291906117bd565b60405180910390f35b34801561009e57600080fd5b506100b960048036038101906100b491906113f6565b610355565b005b6100d560048036038101906100d0919061151b565b610622565b005b3480156100e357600080fd5b506100fe60048036038101906100f991906114bf565b610c87565b60405161010c929190611704565b60405180910390f35b34801561012157600080fd5b5061013c600480360381019061013791906113b6565b610cfe565b005b6000818154811061014e57600080fd5b906000526020600020906006020160009150905080600001805461017190611ab9565b80601f016020809104026020016040519081016040528092919081815260200182805461019d90611ab9565b80156101ea5780601f106101bf576101008083540402835291602001916101ea565b820191906000526020600020905b8154815290600101906020018083116101cd57829003601f168201915b5050505050908060010180546101ff90611ab9565b80601f016020809104026020016040519081016040528092919081815260200182805461022b90611ab9565b80156102785780601f1061024d57610100808354040283529160200191610278565b820191906000526020600020905b81548152906001019060200180831161025b57829003601f168201915b50505050509080600201805461028d90611ab9565b80601f01602080910402602001604051908101604052809291908181526020018280546102b990611ab9565b80156103065780601f106102db57610100808354040283529160200191610306565b820191906000526020600020905b8154815290600101906020018083116102e957829003601f168201915b5050505050908060030160009054906101000a900473ffffffffffffffffffffffffffffffffffffffff16908060030160149054906101000a900460ff16908060040154908060050154905087565b60008111610398576040517f08c379a000000000000000000000000000000000000000000000000000000000815260040161038f906118b1565b60405180910390fd5b60006040518060e0016040528089898080601f016020809104026020016040519081016040528093929190818152602001838380828437600081840152601f19601f82011690508083019250505050505050815260200187878080601f016020809104026020016040519081016040528093929190818152602001838380828437600081840152601f19601f82011690508083019250505050505050815260200185858080601f016020809104026020016040519081016040528093929190818152602001838380828437600081840152601f19601f8201169050808301925050505050505081526020013373ffffffffffffffffffffffffffffffffffffffff168152602001600060018111156104b3576104b2611b4b565b5b8152602001600081526020018381525090506000819080600181540180825580915050600190039060005260206000209060060201600090919091909150600082015181600001908051906020019061050d929190611223565b50602082015181600101908051906020019061052a929190611223565b506040820151816002019080519060200190610547929190611223565b5060608201518160030160006101000a81548173ffffffffffffffffffffffffffffffffffffffff021916908373ffffffffffffffffffffffffffffffffffffffff16021790555060808201518160030160146101000a81548160ff021916908360018111156105ba576105b9611b4b565b5b021790555060a0820151816004015560c0820151816005015550507f472657fb15180beb1548b31adee57ada1efa0dbd19d25622c6f1a27d0c97c23788888888888888604051610610979695949392919061172d565b60405180910390a15050505050505050565b803373ffffffffffffffffffffffffffffffffffffffff166000828154811061064e5761064d611ba9565b5b906000526020600020906006020160030160009054906101000a900473ffffffffffffffffffffffffffffffffffffffff1673ffffffffffffffffffffffffffffffffffffffff1614156106d7576040517f08c379a00000000000000000000000000000000000000000000000000000000081526004016106ce906118d1565b60405180910390fd5b60008083815481106106ec576106eb611ba9565b5b90600052602060002090600602016040518060e001604052908160008201805461071590611ab9565b80601f016020809104026020016040519081016040528092919081815260200182805461074190611ab9565b801561078e5780601f106107635761010080835404028352916020019161078e565b820191906000526020600020905b81548152906001019060200180831161077157829003601f168201915b505050505081526020016001820180546107a790611ab9565b80601f01602080910402602001604051908101604052809291908181526020018280546107d390611ab9565b80156108205780601f106107f557610100808354040283529160200191610820565b820191906000526020600020905b81548152906001019060200180831161080357829003601f168201915b5050505050815260200160028201805461083990611ab9565b80601f016020809104026020016040519081016040528092919081815260200182805461086590611ab9565b80156108b25780601f10610887576101008083540402835291602001916108b2565b820191906000526020600020905b81548152906001019060200180831161089557829003601f168201915b505050505081526020016003820160009054906101000a900473ffffffffffffffffffffffffffffffffffffffff1673ffffffffffffffffffffffffffffffffffffffff1673ffffffffffffffffffffffffffffffffffffffff1681526020016003820160149054906101000a900460ff16600181111561093657610935611b4b565b5b600181111561094857610947611b4b565b5b815260200160048201548152602001600582015481525050905060018081111561097557610974611b4b565b5b8160800151600181111561098c5761098b611b4b565b5b14156109cd576040517f08c379a00000000000000000000000000000000000000000000000000000000081526004016109c490611871565b60405180910390fd5b60003411610a10576040517f08c379a0000000000000000000000000000000000000000000000000000000008152600401610a0790611911565b60405180910390fd5b806060015173ffffffffffffffffffffffffffffffffffffffff166108fc349081150290604051600060405180830381858888f19350505050158015610a5a573d6000803e3d6000fd5b50348160a001818151610a6d91906119ae565b915081815250508060008481548110610a8957610a88611ba9565b5b90600052602060002090600602016000820151816000019080519060200190610ab3929190611223565b506020820151816001019080519060200190610ad0929190611223565b506040820151816002019080519060200190610aed929190611223565b5060608201518160030160006101000a81548173ffffffffffffffffffffffffffffffffffffffff021916908373ffffffffffffffffffffffffffffffffffffffff16021790555060808201518160030160146101000a81548160ff02191690836001811115610b6057610b5f611b4b565b5b021790555060a0820151816004015560c0820151816005015590505060018160000151604051610b9091906116ed565b908152602001604051809103902060405180604001604052803373ffffffffffffffffffffffffffffffffffffffff16815260200134815250908060018154018082558091505060019003906000526020600020906002020160009091909190915060008201518160000160006101000a81548173ffffffffffffffffffffffffffffffffffffffff021916908373ffffffffffffffffffffffffffffffffffffffff1602179055506020820151816001015550507f925c00924682e835f48a31e5b83cb323934f40a811c5a8f44a662915035033c6816000015134604051610c7a929190611841565b60405180910390a1505050565b6001828051602081018201805184825260208301602085012081835280955050505050508181548110610cb957600080fd5b9060005260206000209060020201600091509150508060000160009054906101000a900473ffffffffffffffffffffffffffffffffffffffff16908060010154905082565b803373ffffffffffffffffffffffffffffffffffffffff1660008281548110610d2a57610d29611ba9565b5b906000526020600020906006020160030160009054906101000a900473ffffffffffffffffffffffffffffffffffffffff1673ffffffffffffffffffffffffffffffffffffffff1614610db2576040517f08c379a0000000000000000000000000000000000000000000000000000000008152600401610da9906118f1565b60405180910390fd5b6000808381548110610dc757610dc6611ba9565b5b90600052602060002090600602016040518060e0016040529081600082018054610df090611ab9565b80601f0160208091040260200160405190810160405280929190818152602001828054610e1c90611ab9565b8015610e695780601f10610e3e57610100808354040283529160200191610e69565b820191906000526020600020905b815481529060010190602001808311610e4c57829003601f168201915b50505050508152602001600182018054610e8290611ab9565b80601f0160208091040260200160405190810160405280929190818152602001828054610eae90611ab9565b8015610efb5780601f10610ed057610100808354040283529160200191610efb565b820191906000526020600020905b815481529060010190602001808311610ede57829003601f168201915b50505050508152602001600282018054610f1490611ab9565b80601f0160208091040260200160405190810160405280929190818152602001828054610f4090611ab9565b8015610f8d5780601f10610f6257610100808354040283529160200191610f8d565b820191906000526020600020905b815481529060010190602001808311610f7057829003601f168201915b505050505081526020016003820160009054906101000a900473ffffffffffffffffffffffffffffffffffffffff1673ffffffffffffffffffffffffffffffffffffffff1673ffffffffffffffffffffffffffffffffffffffff1681526020016003820160149054906101000a900460ff16600181111561101157611010611b4b565b5b600181111561102357611022611b4b565b5b81526020016004820154815260200160058201548152505090508360018111156110505761104f611b4b565b5b8160800151600181111561106757611066611b4b565b5b14156110a8576040517f08c379a000000000000000000000000000000000000000000000000000000000815260040161109f90611891565b60405180910390fd5b83816080019060018111156110c0576110bf611b4b565b5b908160018111156110d4576110d3611b4b565b5b8152505080600084815481106110ed576110ec611ba9565b5b90600052602060002090600602016000820151816000019080519060200190611117929190611223565b506020820151816001019080519060200190611134929190611223565b506040820151816002019080519060200190611151929190611223565b5060608201518160030160006101000a81548173ffffffffffffffffffffffffffffffffffffffff021916908373ffffffffffffffffffffffffffffffffffffffff16021790555060808201518160030160146101000a81548160ff021916908360018111156111c4576111c3611b4b565b5b021790555060a0820151816004015560c082015181600501559050507fd63742463cd36bb1dedcfdcdedc4f9a6fdeaf7c80d9e702884e6b373ecb51f1d81600001518560405161121592919061178d565b60405180910390a150505050565b82805461122f90611ab9565b90600052602060002090601f0160209004810192826112515760008555611298565b82601f1061126a57805160ff1916838001178555611298565b82800160010185558215611298579182015b8281111561129757825182559160200191906001019061127c565b5b5090506112a591906112a9565b5090565b5b808211156112c25760008160009055506001016112aa565b5090565b60006112d96112d484611956565b611931565b9050828152602081018484840111156112f5576112f4611c16565b5b611300848285611a77565b509392505050565b60008135905061131781611dfe565b92915050565b60008083601f84011261133357611332611c0c565b5b8235905067ffffffffffffffff8111156113505761134f611c07565b5b60208301915083600182028301111561136c5761136b611c11565b5b9250929050565b600082601f83011261138857611387611c0c565b5b81356113988482602086016112c6565b91505092915050565b6000813590506113b081611e0e565b92915050565b600080604083850312156113cd576113cc611c20565b5b60006113db85828601611308565b92505060206113ec858286016113a1565b9150509250929050565b60008060008060008060006080888a03121561141557611414611c20565b5b600088013567ffffffffffffffff81111561143357611432611c1b565b5b61143f8a828b0161131d565b9750975050602088013567ffffffffffffffff81111561146257611461611c1b565b5b61146e8a828b0161131d565b9550955050604088013567ffffffffffffffff81111561149157611490611c1b565b5b61149d8a828b0161131d565b935093505060606114b08a828b016113a1565b91505092959891949750929550565b600080604083850312156114d6576114d5611c20565b5b600083013567ffffffffffffffff8111156114f4576114f3611c1b565b5b61150085828601611373565b9250506020611511858286016113a1565b9150509250929050565b60006020828403121561153157611530611c20565b5b600061153f848285016113a1565b91505092915050565b61155181611a16565b82525050565b61156081611a04565b82525050565b61156f81611a65565b82525050565b60006115818385611992565b935061158e838584611a77565b61159783611c25565b840190509392505050565b60006115ad82611987565b6115b78185611992565b93506115c7818560208601611a86565b6115d081611c25565b840191505092915050565b60006115e682611987565b6115f081856119a3565b9350611600818560208601611a86565b80840191505092915050565b6000611619602183611992565b915061162482611c36565b604082019050919050565b600061163c601b83611992565b915061164782611c85565b602082019050919050565b600061165f602783611992565b915061166a82611cae565b604082019050919050565b6000611682602c83611992565b915061168d82611cfd565b604082019050919050565b60006116a5602183611992565b91506116b082611d4c565b604082019050919050565b60006116c8602183611992565b91506116d382611d9b565b604082019050919050565b6116e781611a5b565b82525050565b60006116f982846115db565b915081905092915050565b60006040820190506117196000830185611557565b61172660208301846116de565b9392505050565b6000608082019050818103600083015261174881898b611575565b9050818103602083015261175d818789611575565b90508181036040830152611772818587611575565b905061178160608301846116de565b98975050505050505050565b600060408201905081810360008301526117a781856115a2565b90506117b66020830184611566565b9392505050565b600060e08201905081810360008301526117d7818a6115a2565b905081810360208301526117eb81896115a2565b905081810360408301526117ff81886115a2565b905061180e6060830187611548565b61181b6080830186611566565b61182860a08301856116de565b61183560c08301846116de565b98975050505050505050565b6000604082019050818103600083015261185b81856115a2565b905061186a60208301846116de565b9392505050565b6000602082019050818103600083015261188a8161160c565b9050919050565b600060208201905081810360008301526118aa8161162f565b9050919050565b600060208201905081810360008301526118ca81611652565b9050919050565b600060208201905081810360008301526118ea81611675565b9050919050565b6000602082019050818103600083015261190a81611698565b9050919050565b6000602082019050818103600083015261192a816116bb565b9050919050565b600061193b61194c565b90506119478282611aeb565b919050565b6000604051905090565b600067ffffffffffffffff82111561197157611970611bd8565b5b61197a82611c25565b9050602081019050919050565b600081519050919050565b600082825260208201905092915050565b600081905092915050565b60006119b982611a5b565b91506119c483611a5b565b9250827fffffffffffffffffffffffffffffffffffffffffffffffffffffffffffffffff038211156119f9576119f8611b1c565b5b828201905092915050565b6000611a0f82611a3b565b9050919050565b6000611a2182611a3b565b9050919050565b6000819050611a3682611dea565b919050565b600073ffffffffffffffffffffffffffffffffffffffff82169050919050565b6000819050919050565b6000611a7082611a28565b9050919050565b82818337600083830152505050565b60005b83811015611aa4578082015181840152602081019050611a89565b83811115611ab3576000848401525b50505050565b60006002820490506001821680611ad157607f821691505b60208210811415611ae557611ae4611b7a565b5b50919050565b611af482611c25565b810181811067ffffffffffffffff82111715611b1357611b12611bd8565b5b80604052505050565b7f4e487b7100000000000000000000000000000000000000000000000000000000600052601160045260246000fd5b7f4e487b7100000000000000000000000000000000000000000000000000000000600052602160045260246000fd5b7f4e487b7100000000000000000000000000000000000000000000000000000000600052602260045260246000fd5b7f4e487b7100000000000000000000000000000000000000000000000000000000600052603260045260246000fd5b7f4e487b7100000000000000000000000000000000000000000000000000000000600052604160045260246000fd5b600080fd5b600080fd5b600080fd5b600080fd5b600080fd5b600080fd5b6000601f19601f8301169050919050565b7f5468652070726f6a6563742063616e206e6f7420726563656976652066756e6460008201527f7300000000000000000000000000000000000000000000000000000000000000602082015250565b7f4e6577207374617465206d75737420626520646966666572656e740000000000600082015250565b7f66756e6472616973696e6720676f616c206d757374206265206772656174657260008201527f207468616e203000000000000000000000000000000000000000000000000000602082015250565b7f417320617574686f722c20796f752063616e206e6f742066756e6420796f757260008201527f206f776e2070726f6a6563740000000000000000000000000000000000000000602082015250565b7f596f75206e65656420746f206265207468652070726f6a65637420617574686f60008201527f7200000000000000000000000000000000000000000000000000000000000000602082015250565b7f46756e642076616c7565206d7573742062652067726561746572207468616e2060008201527f3000000000000000000000000000000000000000000000000000000000000000602082015250565b60028110611dfb57611dfa611b4b565b5b50565b60028110611e0b57600080fd5b50565b611e1781611a5b565b8114611e2257600080fd5b5056fea2646970667358221220fe15f2d3eb5aa2208ffc511e768cdabec21006b220e318549d38a7c6ac7d716d64736f6c63430008070033",
  "immutableReferences": {},
  "source": "// SPDX-License-Identifier: GPL-3.0\n\npragma solidity >=0.7.0 <0.9.0;\n\ncontract CrowdFunding {\n    enum FundRaisingState { Opened, Closed }\n\n    struct Contribution {\n        address contributor;\n        uint value;\n    }\n\n    struct Project {\n        string id;\n        string name;\n        string description;\n        address payable author;\n        FundRaisingState state;\n        uint256 funds;\n        uint256 fundraisingGoal;\n    }\n\n    Project[] public projects;\n    mapping ( string => Contribution[]) public contributions;\n\n    event ProjectCreated(\n        string projectId,\n        string name,\n        string description,\n        uint256 fundraisingGoal\n    );\n\n    event ProjectFunded(\n        string projectId,\n        uint256 value\n    );\n\n    event ProjectStateChanged (\n        string id,\n        FundRaisingState state \n    );\n\n    //constructor(string memory _id, string memory _name, string memory _description, uint _fundraisingGoal) {\n    //    project = Project(_id, _name, _description, payable(msg.sender), FundRaisingState.Opened, 0, _fundraisingGoal);\n    //}\n\n    modifier isAuthor(uint256 projectIndex) {\n        require(projects[projectIndex].author == msg.sender, \"You need to be the project author\");\n        _;\n    }\n\n    modifier isNotAuthor(uint256 projectIndex) {\n        require(projects[projectIndex].author != msg.sender, \"As author, you can not fund your own project\");\n        _;\n    }\n\n    function createProject(string calldata id, string calldata name, string calldata description, uint256 fundraisingGoal) public {\n        require(fundraisingGoal > 0, 'fundraising goal must be greater than 0');\n        //creo variable que inicializa el proyecto\n        Project memory project = Project(id, name, description, payable(msg.sender), FundRaisingState.Opened, 0, fundraisingGoal);\n        //agrego esta variable al array de proyectos\n        projects.push(project);\n        emit ProjectCreated(id, name, description, fundraisingGoal);\n    }\n\n    function fundProject(uint projectIndex) public payable isNotAuthor(projectIndex) {\n        Project memory project = projects[projectIndex];\n        require(project.state != FundRaisingState.Closed, 'The project can not receive funds');\n        require(msg.value > 0, 'Fund value must be greater than 0');\n        project.author.transfer(msg.value);\n        project.funds += msg.value;\n        projects[projectIndex] = project;\n\n        contributions[project.id].push(Contribution(msg.sender, msg.value));\n\n        emit ProjectFunded(project.id, msg.value);\n    }\n\n    function changeProjectState(FundRaisingState newState, uint256 projectIndex) public isAuthor(projectIndex){\n        Project memory project = projects[projectIndex];\n        require(project.state != newState, 'New state must be different');\n        project.state = newState;\n        projects[projectIndex] = project;\n        emit ProjectStateChanged(project.id, newState);\n    }\n\n}",
  "sourcePath": "/home/nathalia/COURSES/blockchain/CrowdFunding/contracts/CrowdFunding.sol",
  "compiler": {
    "name": "solc",
    "version": "0.8.7+commit.e28d00a7.Emscripten.clang"
  },
  "schemaVersion": "3.4.3",
  "updatedAt": "2021-11-28T23:43:24.619Z",
  "networkType": "ethereum",
  "devdoc": {
    "kind": "dev",
    "methods": {},
    "version": 1
  },
  "userdoc": {
    "kind": "user",
    "methods": {},
    "version": 1
  }
}